:020000040800F2
:10000000200700209D010008092F00083523000863
:10001000052F000879080008453500080000000099
:10002000000000000000000000000000193100087E
:10003000D1080008000000000D2F00081D31000845
:10004000B7010008B7010008B7010008B7010008B0
:10005000B7010008B7010008B7010008B7010008A0
:10006000D5080008B7010008B7010008C508000856
:10007000B7010008B7010008B7010008B701000880
:10008000B7010008B7010008B7010008B701000870
:10009000B7010008B7010008B7010008B701000860
:1000A000B7010008B7010008B7010008B701000850
:1000B000B70100080000000000000000B7010008C0
:1000C000B7010008B7010008B701000800000000F0
:1000D000B7010008B7010008B7010008393500086A
:1000E000B7010008B7010008B701000800000000D0
:1000F0000000000000000000000000000000000000
:10010000000000000000000000000000B70100082F
:100110000000000000000000B7010008000000001F
:1001200000000000000000000000000000000000CF
:1001300000000000000000000000000000000000BF
:10014000B7010008B701000800000000000000002F
:10015000000000000000000000000000000000009F
:10016000B7010008B7010008B7010008B70100088F
:10017000B7010008000000000000000000000000BF
:1001800000000000B7010008DFF80CD000F014FBFD
:10019000004800479935000820070020064880479E
:1001A00006480047FEE7FEE7FEE7FEE7FEE7FEE75C
:1001B000FEE7FEE7FEE7FEE7F931000889010008E7
:1001C0002DE9F05F0546002092469B46884606468C
:1001D000814640241BE0284641464746224600F01F
:1001E0003CFA53465A46C01A914110D3114618465C
:1001F000224600F023FA2D1A67EB01084F462246EB
:100200000120002100F01AFA17EB00094E41201ED0
:10021000A4F10104DFDC484631462A464346BDE8E6
:10022000F09F2DE9F0410024061B254671F10006E0
:1002300005DA01240027D0EB070067EB0101161E49
:1002400073F1000605DA0027D2EB0702012567EB00
:100250000303FFF7B5FF86460E4617469C46AC42A1
:1002600004D00025D0EB050E65EB010624B100207B
:10027000D2EB000760EB030C704631463A4663460A
:10028000BDE8F08140EA01039B0703D009E008C9FB
:10029000121F08C0042AFAD203E011F8013B00F84B
:1002A000013B521EF9D27047D2B201E000F8012B97
:1002B000491EFBD270470022F6E710B513460A46E6
:1002C00004461946FFF7F0FF204610BD421C10F807
:1002D000011B0029FBD1801A70472DE9FE4F804693
:1002E00081EA0300C00F0C46009021F0004123F08A
:1002F0000045B8EB0200A94105D240462146904690
:100300001C460B46024623F00040104347D0270D01
:10031000C7F30A00C3F30A510290401A0190402823
:100320006BDAC3F3130040F4801B0098924620B1AF
:100330000023D2EB030A63EB0B0B01985946C0F183
:100340004002504600F07AF906460D46504659469E
:10035000019A00F092F910EB08006141002487EA4D
:10036000115284EAE7731A4340D0009A62B3019AAB
:10037000012A4FEA075215DC001B61EB02014FF026
:10038000004202EA0752CDE90042001C41F580110B
:1003900032462B4600F092F903B0BDE8F08F40469C
:1003A0002146F9E7001B61EB0201001C41F58013B7
:1003B00000185B412018A2F5001747EB030140EA43
:1003C000D570B6196D4111E06D084FEA360645EA61
:1003D000C0754FEA0752001B61EB0201001C41F59A
:1003E000801149084FEA30000019514132462B462E
:1003F00003B0BDE8F04F00F052B900980122400070
:100400000023D0EB020263EBE073009821464FEA31
:10041000E074B8EB000061EB0401E9E783F000430E
:100420005BE781F0004158E72DE9FE4F81EA0304C4
:1004300004F0004421F0004100944FF0000B23F041
:10044000004350EA01045ED052EA03045BD0C3F3D8
:100450000A54C1F30A552C44A4F2F3340194A0FBCE
:100460000254C1F3130141F48011C3F3130343F4A5
:10047000801301FB024400FB034E840A970A44EAFE
:10048000815447EA8357A4FB076802958D0A05FB50
:1004900007854FEA932C04FB0C542705029D4FEA75
:1004A000065847EA1637B5EB08056EEB070C870EC2
:1004B000920E47EA811742EA8312A7FB0201B6EBCC
:1004C0000B0164EB00042B0D43EA0C335E1844EB84
:1004D0001C50DA465146E7FB0201C5F313044FEA0C
:1004E0000B3343EA14534FEA0432019C43EA0603F8
:1004F000A4F10C040294009CCDE900B400F0DEF8F5
:1005000003B0BDE8F08F00200146F9E72DE9F04D7A
:1005100081EA030404F0004B21F0004514464FF03B
:10052000000A23F0004150EA050220D054EA0102FB
:100530001DD0C5F30A570246C5F31303C1F31300D8
:10054000C1F30A5640F4801543F48013A7EB060864
:10055000101BD64608F2FD3873EB050002D308F1F4
:10056000010801E092185B41B8F1000F03DA0020A6
:100570000146BDE8F08D00204FF480110646844608
:100580000EE0171B73EB050705D3121B63EB050386
:1005900006434CEA010C49084FEA300092185B41CF
:1005A00050EA0107EDD152EA030012D082EA0400BA
:1005B00083EA0501084305D0101BAB4106D2012296
:1005C000002306E000224FF0004302E06FF001023A
:1005D00053101AEB06004CEB085110EB0A0041EBEC
:1005E0000B01BDE8F04D00F05AB800F0004230F0C9
:1005F00000400AD0C10D01F56071C0F3160042EA57
:100600000151C2084007114370470020014670475E
:1006100030B50B46014600202022012409E021FAD2
:1006200002F59D4205D303FA02F5491B04FA02F5CF
:100630002844151EA2F10102F1DC30BD202A04DBA2
:10064000203A00FA02F1002070479140C2F12003E5
:1006500020FA03F3194390407047202A04DB203A24
:1006600021FA02F00021704721FA02F3D040C2F1D2
:1006700020029140084319467047202A06DBCB1719
:10068000203A41FA02F043EAE07306E041FA02F34D
:10069000D040C2F12002914008431946704710B57E
:1006A000141E73F1000408DA401C41F10001921895
:1006B0005B411A4301D120F0010010BD2DE9F04D3E
:1006C00092469B4611B1B1FA81F202E0B0FA80F293
:1006D00020329046FFF7B2FF04460F4640EA0A0078
:1006E00041EA0B0153465A46084313D0114653EAD8
:1006F000010019D0C8F140025046FFF7AEFF054691
:100700000E46504659464246FFF798FF084305D02B
:10071000012004E020463946BDE8F08D0020054365
:1007200046EAE0762C4337430A986305E40AA0EBD7
:1007300008000022FD0A44EA47540A3002D500208E
:100740000146E9E7010510196941DDE9084500198D
:100750006941BDE8F04DA2E7C1F30A52C1F31301AC
:1007600040F2FF3341F480119A4202DA0020014640
:10077000704740F233439A42A2F2334202DC5242C3
:10078000FFF76BBFFFF75ABF30B5041E71F10004CD
:1007900004DB4FF00044404264EB0101141E73F18E
:1007A000000405DB1C464FF00043524263EB040398
:1007B000994208BF904230BD1CB5094800900948D5
:1007C00001900546009C06E0E06840F0010394E8D3
:1007D000070098471034AC42F6D3FFF7D9FC00006D
:1007E000E43F00080440000870B540F20045C4F240
:1007F0000105686940073ED504206861E86844F255
:10080000380620F00400E8602868C4F2010620F0F1
:1008100004002860002040F22204306046F8140CE6
:1008200040F26010C2F20004C2F20000214602222F
:100830000F2300F0F3FD002818BF70BD40F2200127
:100840002088C2F200010A8840F2280340BAC2F2AE
:10085000000343F82200501C82B2203A18BF02461F
:100860000A80E86840F00400E860286840F004006E
:1008700028603220306070BDFEE7000040F2A80220
:10088000C2F2000201681268914218BF704710B5A9
:100890008AB0012100220591CDE9062108910E219F
:1008A00009916946CDE90022CDE90222049204466D
:1008B00000F018F8204600F03DF90AB0BDE81040FD
:1008C0007047000040F2D000C2F2000000F0A6B96C
:1008D00070470000FFF788BFEFF3108072B600BFCB
:1008E000FEE70000026890F82030013B012B28D879
:1008F000B0B5D2F80002012340F00100C2F80002B6
:10090000D1F814E0CC690EF01F0003FA00F0D2F821
:100910001C326FEA000C8343012CC2F81C3216D043
:1009200064BBD2F80C3203EA0C03C2F80C32CB6879
:100930008C8844EA034302EBCE04C4F840320B46F1
:1009400014E0416A41F48021416201207047D2F8ED
:100950000C320343C2F80C320B688C8844EA034320
:1009600002EBCE04C4F8403201F10C038D681B8801
:1009700002EBCE0443EA0543C4F84432D2F8043211
:100980008C6943EA0005D1F810E0096A002C08BF21
:1009900003EA0C05C2F80452D2F81432BEF1000F7B
:1009A00043EA000408BF03EA0C040129C2F8144218
:1009B00004D1D2F81C120843C2F81C02D2F800027B
:1009C00020F00100C2F800020020B0BD002804BFE2
:1009D00001207047B0B5044690F8200010B92046B9
:1009E00000F06EF82068016841F00101016000F03C
:1009F00097FA054620684168C90705D100F090FACA
:100A0000401B0B28F6D310E0016821F002010160C1
:100A100000F086FA054600BF2068416889070DD5B9
:100A200000F07EFA401B0B28F6D3606A052140F4E3
:100A300000306062012084F82010B0BD217E026881
:100A4000012922F0800208BF80320260617E0268C4
:100A5000012922F0400208BF40320260A17E0268F4
:100A6000012922F0200208BF20320260E17E0268E4
:100A7000012922F0100218BF10320260217F0268A3
:100A8000012922F0080208BF08320260617F026873
:100A9000012922F0040208BF04320260D4E901C235
:100AA000D4E9033561691A432A431143ACF10102C9
:100AB0001143C16100200121606284F82010B0BDA3
:100AC00080B586B0006846F20041C4F20001884259
:100AD0004FF000000590CDE90300CDE9010001D001
:100AE00006B080BD41F21400C4F20200816841F0FA
:100AF00000718160816801F00071009100990168C6
:100B000041F400310160006801A900F40030009058
:100B100000984FF4C05001900220029001200390F1
:100B200003200490092005904FF0904000F01AF93E
:100B300006B080BDB0B5044690F8200001281DD154
:100B4000022084F820002068016821F00101016082
:100B500000F0E6F9054600BF20684068C00713D0E2
:100B600000F0DEF9401B0B28F6D3606A40F4003039
:100B70006062052084F820000120B0BD606A40F466
:100B8000002060620120B0BD00206062B0BD0000A6
:100B9000014690F82100022813D10868D1E90FC35B
:100BA000026822F00E020260026822F00102026076
:100BB000012000FA03F2CCF8042081F82100002083
:100BC00002E0042088630120002281F82020704781
:100BD00090F8211002291CD180B50268D0F834E0C9
:100BE000D0E90FC31168BEF1000F21F00E011160B2
:100BF000116821F0010111604FF0010101FA03F1C8
:100C0000CCF804104FF48071018418BFF047002025
:100C100080BD04218163012070470000B0B5D0E998
:100C20000FC30268DCF800100424D2F800E09C40F6
:100C30000C4218BF1EF004051DD102249C400C423A
:100C400018BF1EF0020525D1D940090712D51EF0A4
:100C5000080108BFB0BD116821F00E01116001212B
:100C600001FA03F2CCF804208163016B4FF4807227
:100C7000028461B9B0BD1168890603D4116821F0FE
:100C800004011160CCF80440C16A0029F2D0BDE82B
:100C9000B04008471168890606D4116821F00A019E
:100CA0001160012180F82110CCF80440816A0022F3
:100CB000002980F82020EAD1DCE700000146002866
:100CC0004FF0010008BF70472DE9F047D1F800C090
:100CD0004FF6F873CBF6FD734CF6CD426344CCF679
:100CE000CC42A3FB022E4FF4007201F10C080A84DF
:100CF000D1E9019A98E8F001DCF8002043F6F0739E
:100D00009A4342EA090242EA0A0222432A43324350
:100D10003A4342EA0802CCF800206FF003020023B5
:100D200002EA9E02C4F20203C1E90F3200228A6382
:100D300081F821000020BDE8F0477047B0B50446B7
:100D400000F0EEF8054640F20800C2F2000000781C
:100D5000611C18BF044400BF00F0E2F8401BA04231
:100D6000FAD3B0BD2DE9F04F84B00C68002C00F030
:100D7000D38040F2004E00F1200240F60047C4F25A
:100D8000010E0092C4F60007052200254FF0000B6B
:100D90004FF0000AB84208BF03220192029049E0D6
:100DA00040F60002C4F60002019E904208BF0226EF
:100DB00005F00C030F279F402CEA070706FA03F300
:100DC0004FEA9A023B4344F82230DEF800204B6899
:100DD00042EA0907DE0358BF22EA0907CEF800708D
:100DE000DEF804209E0342EA090758BF22EA0907F9
:100DF000CEF80470DEF80820DE0242EA090740F26D
:100E00000C4658BF22EA0907CEF80870C4F2010662
:100E100032689B0242EA090758BF22EA0907376095
:100E20000C680AF1010A34FA0AF20BF1020B05F11F
:100E3000040571D0012202FA0AF714EA0709EFD07B
:100E40004E68032206F00308A8F10104012C02FAFF
:100E50000BF414D8D0F808C07046D1F80CE02CEA96
:100E600004020EFA0BF3864602981A438260426827
:100E7000C6F30013BA4303FA0AF31A434260B8F107
:100E8000030F1CD0C2688B68A24303FA0BF31A430A
:100E9000B8F1020FC26012D16FF00302009E02EAA5
:100EA0005A0205F01C070F2356F802C003FA07F890
:100EB0000B692CEA080CBB4043EA0C03B3500268F0
:100EC0004B68A24303F0030707FA0BF73A4313F406
:100ED000403F0260A4D041F21803C4F202031A6832
:100EE000AEF57E7442F001021A601A68B0F1904FBC
:100EF00002F001020392039A2AF0030254F802C09E
:100F000008D040F20042C4F6000290427FF448AF9D
:100F100001264DE700264BE704B0BDE8F08F000046
:100F200040F21830C2F200000068704790F841208B
:100F3000202A03D190F84020012A01D102207047D5
:100F4000242280F841200268136823F00103136013
:100F5000136823F4805313601368194311601168F8
:100F600041F001011160202180F84110002180F83A
:100F7000401000207047000090F84120202A03D143
:100F800090F84020012A01D102207047242280F8E5
:100F900041200268136823F001031360136823F4EF
:100FA000706343EA01211160116841F00101116091
:100FB000202180F84110002180F840100020704767
:100FC000002804BF0120704710B590F8411031B9D6
:100FD000002180F84010044600F044F82046242107
:100FE00080F8411090E80610C4680B6822F0706227
:100FF00023F001030B600A618A68012C22F400428D
:101000008A604FF4044208BF4FF4004242EA0C02E7
:10101000022C8A6004BF4FF400624A604A6800F103
:10102000100C42F0007242F400424A60CA6822F496
:101030000042CA609CE81C101A4342EA0422CA60BB
:10104000026A42EA0C020A600A6842F001020A607F
:1010500000212022416480F84120016380F8421081
:10106000002010BD10B586B0006845F20041C4F202
:10107000000188424FF000000590CDE90300CDE962
:10108000010001D006B010BD41F21404C4F2020404
:10109000206801A940F480202060206800F48020AE
:1010A00000900098C020019012200290012003902F
:1010B000032004900420059040F20040C4F6000094
:1010C000FFF750FEA06840F40010A060A06800F494
:1010D00000100090009806B010BD000040F208001B
:1010E00040F21831C2F20000C2F2000100780A6832
:1010F000104408607047000080B542F20000C4F25E
:101100000200016841F010010160032000F088F83E
:10111000002000F005F800F02BF8002080BD000052
:10112000B0B540F20802C2F2000240F204011278A7
:10113000C2F200014FF47A730968B3FBF2F204467D
:10114000B1FBF2F1084600F069FB0F2C4FF00105EE
:101150000CD858B94FF0FF3021460022002500F08E
:1011600033F840F20C00C2F2000004602846B0BD23
:1011700082B041F21800C4F20200016841F001019E
:101180000160016801F0010101910199416841F09C
:1011900080514160406800F080500090009802B09B
:1011A00070470000002848BF704700F01F0101226F
:1011B00002FA01F11C2202EAD0004EF20012CEF235
:1011C000000281507047000010B54EF60C5CCEF264
:1011D000000CDCF80030C3F3022E8EF00704042C60
:1011E00028BF0424BEF103034FF0FF3E0EFA04F4BF
:1011F00038BF0023A14399400EFA03F39A431143E9
:1012000000F1604200F00F03090102F56442043B63
:101210006344002848BF03F10C02117010BD0000A8
:101220004EF60C51CEF200010A684FF6FF031A4049
:1012300060F30A2242F0806040F0FD700860704761
:1012400040F2040041F20401C2F20000C4F20201C3
:101250000068096843F6B472C1F30221C0F60002C7
:10126000515CC8407047000041F2040CC4F2020C0B
:10127000DCF8002002F00C00082841F20020C0F247
:101280007A0018BF704743F6BC71C2F38343C0F6BF
:101290000001CB5CDCF82810D20305D440F6001026
:1012A000C0F23D005843704743F6CC7201F00F0185
:1012B000C0F60002515CB0FBF1F0584370470000EB
:1012C000002804BF01207047416A19B10021016163
:1012D000142104E04168B1F5827F02D01C21002274
:1012E0004250B0B50025856290F85D1029B980F8AC
:1012F0005C50044600F056F82046022180F85D104C
:101300000168D0F80CE00B68BEF5E06F23F04003F5
:101310000B6098BF01254EF40063B3F5706F4FEA80
:10132000053C1CBF00258562D0E90154D0E9043298
:1013300005F4827504F404442C4403F002032344AE
:10134000846902F00102C5691A4404F400731A4466
:1013500005F03803056A1A4405F08003856A1A44CB
:1013600005F400531A430A600422436A0EF47065C0
:1013700002EA1442446B45EA0C0503F010032A43C9
:1013800004F008041A4322434A60CA6922F4006246
:10139000CA6100210122016680F85D20BDE8B040ED
:1013A0000846704780B586B0006843F60001C4F275
:1013B000000188424FF000000590CDE90300CDE91F
:1013C000010001D006B080BD41F21400C4F2020059
:1013D000816841F480418160816801F4804100911D
:1013E0000099016841F480210160006801A900F4BE
:1013F0008020009000984FF4C0400190022002909D
:1014000001200390032004900520059040F2004045
:10141000C4F60000FFF7A6FC06B080BD2DE9F0433E
:1014200081B0044640681D461746B0F5827F0E46DF
:1014300002D1A06800286ED094F85C00012803D186
:10144000022001B0BDE8F0834FF0010984F85C9000
:10145000FFF766FD94F85D1001295AD18046002EF1
:101460004FF0010018BF002F00F08E80042084F898
:101470005D00002020662664A4F84470A4F846703D
:10148000A063A087E0872168C4E91300D4E90220A3
:101490004B68B0F5E06F23F4805398BF03F5805399
:1014A000B2F5004F4B6008D121680A6822F0400273
:1014B0000A600A6822F480420A6021680A685206BB
:1014C00003D40A6842F040020A60B4F84610B0F54E
:1014D000E06F2DD800294AD06E1C0DE0007B216CF6
:1014E0000870206C01302064B4F846000138A4F87C
:1014F0004600B4F84600D0B320688168C907EDD132
:10150000FFF70EFD002EF4D0A0EB0800A842F0D3A8
:101510002BE0022038E0042084F85D0020463146AC
:1015200032463B46009500F037F801B0BDE8F08345
:10153000E9B16E1C0DE000BFC068216C21F8020B00
:101540002164B4F846000138A4F84600B4F8460017
:1015500068B120688168C907EED1FFF7E1FC002E71
:10156000F4D0A0EB0800A842F0D303200CE0204602
:101570002946424601F0CCFC00281CBF20202066F2
:10158000206E002818BF0120002184F85D9084F8A7
:101590005C1001B0BDE8F0832DE9F04381B0044652
:1015A00090F85C00012803D1022001B0BDE8F0836F
:1015B00001201E4615460F4684F85C00FFF7B0FC7C
:1015C00094F85D108146012940F08080002F4FF093
:1015D000010018BF002D00F01681002E00F01381CD
:1015E00094F85D0004281CBF052084F85D000020ED
:1015F00020662564A4F84660A4F84460A763E687E3
:10160000C4E913002068A687E1684268B1F5E06F7D
:1016100022F48052134698BF03F58053012E88BFF1
:10162000134643600268520603D4026842F0400247
:1016300002606268731EB2FA82F2B3FA83F3DDF8D5
:10164000208052095B09B1F5E06F43EA02014DD9F0
:1016500031B137F8021BC160A763E08F0138E08722
:10166000012608F1010500BFE08F20B9B4F846005B
:10167000002800F0AB802068816889070CD5E18FD5
:1016800051B1012E08D1A16B002631F8022BC260A6
:10169000A163E18F0139E1878168C9070DD0B4F8F2
:1016A000461051B1C068216C012621F8020B21645B
:1016B000B4F846000138A4F84600FFF731FC002DCD
:1016C000D2D0A0EB09004045CED37DE06068B0F5F4
:1016D000827F09D104294FF0020040F09480A16874
:1016E00000293FF473AF8EE002208CE000294FF612
:1016F000FE7111D0E28F022A05D337F8022BC260A7
:101700004FF6FE7004E03A780273A06B471C481C49
:10171000A763E28F1044E087012708F101054E1C02
:10172000E08F18B9B4F8460000284FD020688168CF
:10173000890717D5E18FA9B1012F13D1E28FA16BD2
:10174000022A05D331F8022BC2604FF6FE7004E086
:1017500009780173A06B411C3046A163E18F00271B
:101760000844E08720688168C90725D0B4F846108E
:1017700011B3B4F84610022912D3C168226C22F8C2
:10178000021B2264B4F846100239A4F84610B4F8DB
:10179000461001290FD8416841F4805141600AE0A8
:1017A000007B216C0870206C01302064B4F8460086
:1017B0000138A4F846000127FFF7B2FB002DAFD097
:1017C000A0EB09004045ABD303201CE020464FF4BA
:1017D000C05142464B4601F0D1FB68B92046414614
:1017E0004A4601F03FFC38B920464FF4C0614246FA
:1017F0004B4601F0C3FB78B1206E40F0200020661C
:10180000202020660120012184F85D10002184F849
:101810005C1001B0BDE8F0830020F4E7411E002019
:10182000B0EB116F1CBF012070474EF21002CEF2D8
:10183000000251604EF62351CEF20001F0230B70EE
:10184000072190601160704790F83C20012A4FF00A
:10185000020230D010B5012380F83C3080F83D20E2
:10186000026842F6004C5368D2F808E0C4F2010C5A
:10187000624503D14C6823F4700323430C6823F0C2
:1018800070032343B2F1804F536007D044F200034A
:10189000C4F201039A4201D0624504D189682EF056
:1018A0008003194391600121002280F83D1080F8E7
:1018B0003C20BDE8104010467047000090F83C30D6
:1018C000012B04BF022070474FEAB2020123052A10
:1018D00080F83C3000F2A8812DE9F041DFE812F0F9
:1018E000060015018E00DA005200610103681A6AD1
:1018F000A3F1804622F001021A621D6A1A46D3F84B
:1019000004C052F818EF8F68A6F59636D1F800801B
:1019100025F002054FEAB626072E45EA07050AD844
:101920000127B74017F0E10F1FBFCF6825F00C0566
:1019300027F004073D43072E0CD8012707FA06F6C7
:1019400016F0E10F1FBFD1E905672CF44074264360
:1019500046EA070C4FF68C74CFF6FE740EEA0407C5
:1019600047EA0807C3F804C09F614F6809695F63CD
:101970001D629F6947F008079F619F6927F0040770
:101980009F614BE103681A6AA3F1804722F4803219
:101990001A621A46A7F59637D3F820805D6852F888
:1019A00054EFD1F800C08E684FEAB727072F09D847
:1019B0000124BC4014F0E10F1EBF4C6925F48035B2
:1019C00045EA042528F4003444EA06444FF68C76B0
:1019D000CFF6FE7603360EEA060747EA0C075D608F
:1019E0005F654F6809699F651C625F6D47F0080776
:1019F0005F655F6D27F004075F650FE1036842F6DE
:101A000000461A6AC4F2010622F480721A621F6A42
:101A10001A465C6852F81CCFB3428E6827F40077F0
:101A200047EA062508D1CF6825F440663F0240F218
:101A3000FF45AF4347EA0605A3F18046A6F5963673
:101A4000D1F800E04FEAB626072E0CD8012707FA96
:101A500006F616F0E10F1FBFD1E9056724F44054E4
:101A60003E4344EA06144FF68C76CFF6FE760CEA37
:101A7000060747EA0E075C60DF614F680969DF63AC
:101A80001D62DF6947F00807DF61DF6927F004079F
:101A9000DF61C3E003681A6AA3F1804722F4805231
:101AA0001A621A46A7F59637D3F820805D6852F877
:101AB0001CCFD1F800E08E684FEAB727072F09D86E
:101AC0000124BC4014F0E10F1EBF4C6925F4804591
:101AD00045EA841528F4005444EA063448F6FF46E3
:101AE000CFF6FF660CEA060747EA0E275D60DF6166
:101AF0004F6809691F641C62DF6947F40067DF6192
:101B0000DF6927F48067DF6187E0036842F60046FB
:101B10001A6AC4F2010622F010021A621F6A1A46FB
:101B20005C6852F818CFB3428E6827F0200747EA66
:101B3000061508D1CE6825F0C0076FF0400505EA0C
:101B4000061646EA0705A3F18046A6F59636D1F8B3
:101B500000E04FEAB626072E0CD8012707FA06F652
:101B600016F0E10F1FBFD1E9056724F440643E433E
:101B700044EA860448F6FF46CFF6FF660CEA0607FD
:101B800047EA0E275C609F614F6809699F631D6289
:101B90009F6947F400679F619F6927F480679F6191
:101BA0003BE003681A6AA3F1804722F480121A62AC
:101BB0001A46A7F59637D3F820805D6852F854EF9F
:101BC000D1F800C08E684FEAB727072F09D8012443
:101BD000BC4014F0E10F1EBF4C6925F4802545EA96
:101BE000842528F4001444EA065448F6FF46CFF64C
:101BF000FF6606F540760EEA060747EA0C275D60A9
:101C00005F654F680969DF651C625F6D47F40067B7
:101C10005F655F6D27F480675F650902136819438C
:101C200000231160BDE8F041002180F83C10184607
:101C300070470000002804BF0120704710B590F8DD
:101C40003D1031B9002180F83C10044600F06AF8DC
:101C50002046022180F83D10016842F600430A68E0
:101C6000C4F20103994202D0B1F1804F03D18468DC
:101C700022F07002224343F6FF74C4F20104A14231
:101C800010DD44F20003C4F2010399420FD044F680
:101C90000003C4F20103994209D044F20043C4F2A4
:101CA000010302E0B1F1804F01D0994203D10369F1
:101CB00022F440721A43846922F080022243D0F851
:101CC00004C0C3680A60A1F18042A2F596324FEACF
:101CD000B222072ACB62C1F828C007D8012303FA31
:101CE00002F212F0E10F1CBF42690A6301224A614D
:101CF00080F8482080F83E2080F83F2080F840207F
:101D000080F8412080F8422080F8432080F8442069
:101D100080F8452080F8462080F8472080F83D2054
:101D2000002010BD70B582B004460068B0F1804F4D
:101D300001D002B070BD41F21C00C4F20200016883
:101D400040F2D00541F0010101600068C2F20005D7
:101D500000F00100019001980820C4F20200102157
:101D6000002280234FF4007C4FF4806E4FF4005625
:101D700085E80F502846C5E90626FEF79FFF002894
:101D800018BFFEF7A9FDE5626C6202B070BD0000ED
:101D900070470000704700007047000070B502688F
:101DA00040F62F03D169166894680B40202B06F08B
:101DB000200E07D1BEF1000F04D0416E41B3BDE843
:101DC0007040084740F60F03194209D040F2201333
:101DD000C0F2004304F0010C334013EB0C0324D198
:101DE000036ECD0615D5012B13D116F0100310D0BC
:101DF00010211162916849062CD4B0F85810B0F83F
:101E00005A20B0F85A30002B18BF914240F02E8172
:101E100070BDCB0211D514F480030ED04FF48011A5
:101E20001162BDE87040FFF7B5BFCB0718BF16F4CD
:101E3000807357D18B075FD469E00A0640F1F980BF
:101E400016F0800200F0F580816E0029E0D0BDE838
:101E500070400847016F0A68526893B2002BD7D0D0
:101E6000B0F85860B342D3D2A0F85A20896920292B
:101E700032D000BF016851E8001F026821F4807170
:101E800042E80013002BF5D1016851E8021F0268F7
:101E900021F0010142E80213002BF5D1016851E85D
:101EA000021F026821F0400142E80213002BF5D125
:101EB0002021C16700210166016851E8001F026806
:101EC00021F0100142E80013002BF5D1016F044608
:101ED0000846FEF75DFE2046B0F85810B0F85A20CC
:101EE000891AE9E001231362D0F8803043F001033E
:101EF000C0F880308B070AD5BCF1000F07D0022351
:101F00001362D0F8803043F00403C0F880304B07F0
:101F10000AD5BCF1000F07D004231362D0F880303B
:101F200043F00203C0F880300B070AD55CEA0E03C9
:101F300007D008231362D0F8803043F00803C0F8BC
:101F400080300B050BD516F0806308D04FF400638A
:101F50001362D0F8802042F02002C0F88020D0F830
:101F60008020002A3FF454AF890607D5BEF1000F48
:101F700004D0416E11B10446884720460168D0F86C
:101F80008020896802F0280201F04001891807D1F9
:101F90000446FFF701FF0020C4F8800070BD00BFB9
:101FA000016851E8001F026821F4907142E80013B3
:101FB000002BF5D1016851E8021F026821F00101F0
:101FC00042E80213002BF5D1016E01290AD100BFAE
:101FD000016851E8001F026821F0100142E8001377
:101FE000002BF5D12021C1670021016602684166FE
:101FF0009168490636D500BF016851E8021F0268A2
:1020000021F0400142E80213002BF5D1016F49B3E2
:1020100043F2F522C0F60002044608464A63FEF782
:10202000D7FD00283FF4F4AE206F416BBDE870404F
:10203000084749067FF5ECAE16F0400108BF70BDB9
:10204000016851E8001F026821F0400142E80013D6
:10205000002BF5D12021816700218166BDE8704009
:1020600000F066B9BDE87040FFF796BE891A00BF60
:10207000026852E8002F036822F4907243E80026B9
:10208000002EF5D1026852E8022F036822F0010207
:1020900043E80226002EF5D12022C2670022026604
:1020A000426600BF026852E8002F036822F0100267
:1020B00043E80026002EF5D189B2BDE87040FFF755
:1020C00067BE0000002804BF01207047B0B582B091
:1020D0000446806F28B9002084F87400204600F080
:1020E00053F82420A0672068016821F001010160F5
:1020F000204601F007F910B1012002B0B0BD606ABE
:1021000010B1204601F082F82068416821F4904126
:102110004160816821F02A018160016841F001017C
:1021200001600020C4F88000FEF7FAFE2168054631
:10213000096809070BD56FF07E4C20464FF400115B
:1021400000222B46CDF800C001F082F978B9206852
:10215000006840070ED56FF07E4C20464FF480019A
:1021600000222B46CDF800C001F072F910B1032017
:1021700002B0B0BD2020A067E0670020206684F890
:10218000740002B0B0BD000080B586B0006844F6AF
:102190000002C4F2000200219042CDE90411CDE911
:1021A000021101912DD043F60001C4F201018842D1
:1021B00056D141F21400C4F20200416841F480415A
:1021C0004160416801F4804100910099016841F447
:1021D00000310160006801A900F40030009000980F
:1021E0004FF4C06001900220029000200390032071
:1021F0000490072005904FF09040FEF7B3FD06B025
:1022000080BD41F21400C4F20200826842F48022D0
:102210008260826802F480220092009A026842F48E
:1022200080220260006800F48020009000984FF443
:10223000406001900220CDE90201032004900720B4
:10224000059040F20040C4F6000001A9FEF78AFDA7
:10225000272000210022FEF7B7FF2720FEF7A2FF6C
:1022600006B080BD2DE9F04182B00446806F202881
:102270000DD10F4600294FF0010018BF002A02D1EE
:1022800002B0BDE8F08194F87400012803D1022067
:1022900002B0BDE8F081012084F874000020C4F889
:1022A000800021201D46A0671646FEF739FEA4F8DF
:1022B0005060A4F85260A1688046B1F5805F01D1FA
:1022C000206998B33E460027002084F8740007E098
:1022D00016F8011B0185B4F852000138A4F8520029
:1022E000B4F8520080B12046802100224346009578
:1022F00001F0AEF880B92068002EE9D137F8021B52
:1023000000266FF35F21E5E7204640210022434687
:10231000009501F09DF818B1032002B0BDE8F081EE
:102320002020A067002002B0BDE8F0810026CBE7A6
:1023300070470000FEE7000080B5017A036840F2B4
:10234000004EC4F2010E89B153B3417A02292ED056
:10235000012928D0C1BBDEF804109943CEF804103F
:10236000DEF800101943CEF800102AE0DEF8001065
:102370004FF0000C9943CEF80010DEF8041099439A
:10238000CEF804104068DEF820108143CEF820100B
:10239000DEF8241021EA0000CEF82400604680BD5B
:1023A0004FF0000C35E0DEF80010994302E0DEF853
:1023B00000101943CEF80010DEF804101943CEF8CF
:1023C00004104FF0000C01E04FF0010C817A03295A
:1023D0001DD8DFE801F01E020D11DEF80C10994344
:1023E000CEF80C10DEF808101943CEF8081010E0F3
:1023F000DEF80810994302E0DEF808101943CEF821
:102400000810DEF80C101943CEF80C1001E04FF064
:10241000010C436843B3417A022911D001290BD042
:10242000C9B9DEF824109943CEF82410DEF8201044
:102430001943CEF8201010E0DEF82010994302E096
:10244000DEF820101943CEF82010DEF824101943CE
:10245000CEF8241001E04FF0010C807A032821D837
:10246000DFE800F002140408604680BDDEF82800B2
:10247000984302E0DEF828001843CEF82800DEF882
:102480002C001843CEF82C00604680BDDEF82C00EE
:102490009843CEF82C00DEF828001843CEF8280028
:1024A000604680BD012080BD2DE9F04F0C6894FA94
:1024B000A4F2B2FA82F234FA02F369D04FF00109C1
:1024C0004FF0030A1EE04FEA1C2595FAA5F5B5FA70
:1024D00085F5D1F814E0476AAD000F23AB4027EA39
:1024E00003030EFA05F73B43436200BF4B680768DE
:1024F000F6433740A3403B4303600C68013234FA93
:1025000002F345D009FA02F314EA030CF5D0D1F82E
:1025100004809CFAACF6A8F10103012B1AD8B6FA94
:1025200086F3D0F808905B000327D1E902BE07FAD2
:1025300003FA29EA0A090BFA03F343EA0903836061
:1025400043684FF0030AA3430EFB04F44FF0010964
:1025500023434360B6FA86F30D69C7685C000AFA44
:1025600004F6B743A5402F43B8F1020FC760BDD1B1
:102570005FEA0C67A7D0D1F814C0056A9B000F274B
:102580009F4025EA07070CFA03F33B430362ADE7DC
:102590000020BDE8F08F000040F20401C2F200010B
:1025A0000860704780B58A688446087BD1E900E3FB
:1025B00022F47C42104323F4784210432EF47042FC
:1025C0000B691043CA8923F440436FF35F32184309
:1025D00002434B6A42F60040C4F20100844543EADC
:1025E000020305D0844509D00020CCF8443080BDDA
:1025F0004A6923F4702313438445F5D123F07C709A
:102600000B6AD1E9062123F04073184322F00072CF
:10261000104340EA0103E7E742F6004C0246006837
:10262000C4F2010C624502D0B2F1804F03D14B6875
:1026300020F07000184343F6FF73C4F201039A427E
:1026400012DD44F20003C4F201039A4211D044F6B1
:102650000003C4F201039A420BD044F20043C4F2D7
:1026600001039A4205D008E0B2F1804F01D06245E3
:1026700003D1CB6820F44070184310608868D062A2
:10268000A2F18040A0F596300B884FEAB0200728D1
:10269000936207D8012303FA00F010F0E10F1CBF8A
:1026A00008691063506940F00101002051617047D2
:1026B0002DE9F041B1F5805F4FF0010350DA0129B7
:1026C00000F09080102900F00381B1F5807F40F088
:1026D0008181016A40F2FF1621F480710162036A70
:1026E0004168D0F81CC0146923F440732402B44339
:1026F0002343A0F18044D2E900E5A4F596344FEAE3
:10270000B424072C43EA05231CD8012505FA04F458
:1027100014F0E10F16D002F1140898E8600140F2BD
:10272000FF77AD0223F440639468BD432B4343EA33
:102730008423340142F20F0521F44051AC4321437C
:1027400041EA48114FF68C74CFF6FE740CEA040788
:1027500047EA0E074160C761D168C163036238E18F
:1027600000F08380B1F5803F00F0F980B1F5801F63
:1027700040F03081016AA0F1804321F480110162B0
:10278000A3F59633056AD0F854E0D2E9004C1169FC
:102790004FEAB323072B0DD8012606FA03F313F0F3
:1027A000E10F1FBF4368966923F4802343EA862321
:1027B00018BF436025F440130025CFF6E07505EA05
:1027C0000151194348F6FF43CFF6FF6303F5407309
:1027D00003EA0E0343EA04234365D26841EA0C513D
:1027E000C265F5E0016A21F001010162036A4168F6
:1027F000D0F818C0146923F0030324F00104234324
:10280000A0F18044D2E900E5A4F596344FEAB4245F
:10281000072C43EA05031AD8012505FA04F414F03D
:10282000E10F14D002F1140898E860016FF004077A
:1028300023F00C03946807EA85052B4343EA8403DD
:1028400021F4407126F40074214341EA48014FF617
:102850008C74CFF6FE740CEA040747EA0E07416059
:102860008761D16841630362B3E0016AA0F18046E9
:1028700021F480510162A6F59636046A4368C16965
:10288000D2E900EC15694FEAB626072E0AD80127CF
:1028900007FA06F616F0E10F1EBF966923F480438F
:1028A00043EA86132D0341F6FF7624F44054B543E2
:1028B0002C4348F6FF45CFF6FF65294041EA0E213B
:1028C0004360C161D16844EA0C320164026280E075
:1028D000016A6FF0100621F010010162036A41687D
:1028E000D0F818C0146923F0300306EA0414234317
:1028F000A0F18044D2E900E5A4F596344FEAB4246F
:10290000072C43EA05131CD8012505FA04F414F03A
:10291000E10F16D002F1140898E860016FF040074B
:1029200023F0C003946807EA85152B4343EA841318
:10293000B40040F6030521F44061AC43214341EA71
:10294000C80148F6FF44CFF6FF640CEA040747EAE3
:102950000E2741608761D1688163036239E0016AB3
:10296000A0F1804321F480310162A3F59633046A1B
:10297000D0F854C0D2E900E511694FEAB323072B20
:102980000DD8012606FA03F313F0E10F1FBF4368C9
:10299000966923F4803343EA062318BF436024F486
:1029A00040330024CFF6E07404F5F01404EA01414A
:1029B00019434FF68C73CFF6FE73033303EA0C030F
:1029C00043EA0E034365D26841EA0541836D82659F
:1029D000016200231846BDE8F081000081B04EF28C
:1029E0001001CEF200010A6801300092009A28BF5F
:1029F0004FF0FF300A68D20300EBE2700028F9D1F3
:102A000001B0704780B540F2A80046F20041C2F222
:102A10000000C4F200010422002380E80E0000F14F
:102A20000C014FF4403C4FF4401E81E80850836194
:102A30008383FDF7CBFF002808BF80BDBDE8804041
:102A4000FDF74ABF80B582B041F21400C4F2020023
:102A50000168002241F0010101600068002100F0DE
:102A60000100019001980B20FEF7AEFB0B2002B095
:102A7000BDE88040FEF796BB2DE9F0418AB0002604
:102A800041F214000896CDE90666CDE90466CDE969
:102A90000266CDE90066C4F20200016840F200441B
:102AA00041F4002101600168C4F6000401F4002132
:102AB0000991099901684FF4805841F4800101603F
:102AC00001686D4601F480010991099901680127A7
:102AD00041F400310160016801F400310991099964
:102AE000016841F4802101600068294600F48020DB
:102AF000099009984FF46040C4F82804C4F828806D
:102B0000009004F58060CDE90176CDE90366FFF71A
:102B1000CBFC032002A9C1C120462946CDE900878C
:102B2000FFF7C2FC0820C4F201000168022567F328
:102B300007110160016867F30B210160E06820F074
:102B40000C00E060E06820F03000E060206820F0D9
:102B50000C002060206820F03000206006AC204689
:102B6000CDE90656ADF820708DF82270FFF7E4FB32
:102B70000420CDE906062046ADF820708DF82250DD
:102B8000FFF7DAFB4EF60C50CEF2000000684EF272
:102B90000010CEF200004FF4807180F808630160ED
:102BA0000AB0BDE8F081000080B540F2141045F293
:102BB0000041C2F20000C4F200010122002380E8BB
:102BC0000E00C0E90323C0E90533C0E90733FEF76F
:102BD000F7F9002818BFFDF77FFE40F21410C2F28B
:102BE00000000021FEF7A2F9002818BFFDF774FECF
:102BF00040F21410C2F200000021FEF7BDF90028D7
:102C000018BFFDF769FE0020C4F20100016841F41D
:102C10008011016080BD0000B0B540F2601043F645
:102C2000000EC2F20000C4F2000E4FF482724FF4A4
:102C300080634FF4E06C00214FF400740825C0E974
:102C400000E20722C0E9023CC0E90411C0E90645E0
:102C5000C0E90811C0E90A12C0E90C15FEF730FB03
:102C6000002808BFB0BDBDE8B040FDF735BE00008C
:102C7000F0B59FB007AD41F2140744F200040026FE
:102C800028462821C4F20207C4F201041D96CDE9AA
:102C90001B66CDE91966CDE91766CDE91566CDE964
:102CA0001366CDE91166FDF706FBCDE90566CDE9B2
:102CB0000366CDE90166786819A940F48030786030
:102CC000786800F480301E901E98B320CDE91B0672
:102CD0002046ADF864601A961D96FFF79DFC2068AB
:102CE00011AA20F080002060A069102140F400604B
:102CF000A0616020CDE911062046CDE91366CDE93B
:102D00001566CDE91766FFF7D3FCA069294620F4C4
:102D10008060A061606820F070006060A06820F0B2
:102D20008000A0604FF40050CDE90B062046ADF8BE
:102D30002A60CDE9076609968DF828601096FFF79E
:102D400031FC206A40F010002062206AC00658BFA3
:102D5000FDF7C2FD206801A940F001002060606C11
:102D600040F400406064386840F48020386038687F
:102D700000F480201E901E984FF400400190022025
:102D8000CDE902060120069040F20040C4F60000A2
:102D9000CDE90466FFF788FB1FB0F0BDB0B590B079
:102DA00040F2C4100024C2F200004FF080415922CA
:102DB000CDE90844CDE90644CDE90444CDE9024417
:102DC000CDE90044C0E90014C0E902420461846115
:102DD000FEF730FF002818BFFDF77EFD40F2C4105B
:102DE000C2F2000007A907940994FEF72DFD002800
:102DF00018BFFDF771FD40F2C4146020C2F2000458
:102E000000900025694620460822CDE90155049529
:102E1000FEF754FD002818BFFDF75EFD20680F95F2
:102E2000B0F1804FCDE90D550C950B9501D010B048
:102E3000B0BD41F21400C4F20200016841F4003157
:102E4000016000680BA900F400300A900A98042081
:102E50000B9002200C900020CDE90D0001200F9076
:102E60004FF09040FDF77EFF10B0B0BD80B540F24E
:102E7000102043F60001C2F20000C4F20101002359
:102E80004FF00C0C4FF4E13280E80E00C0E9033340
:102E9000C0E905C3C0E907334362FFF713F900280F
:102EA00008BF80BDBDE88040FDF716BD80B540F28B
:102EB000942044F60001C2F20000C4F20001002395
:102EC0004FF00C0C4FF4E13280E80E00C0E9033300
:102ED000C0E905C3C0E907334362FFF7F3F80028F0
:102EE00008BF80BDBDE88040FDF7F6BC40F2280079
:102EF00040F22402C2F20000C2F20002202100F0DF
:102F000033BB0000FEE70000FEE700007047000052
:102F100070B5044640681546B0F5827F0E460BD169
:102F2000A068B0F5004F02D0B0F5806F04D12068E2
:102F3000016821F040010160204631462A4600F038
:102F400091F828B1206E40F020002066032070BD6B
:102F50006068B0F5827F0FD1A068B0F5004F02D055
:102F6000B0F5806F08D120464FF4C06132462B4641
:102F700000F004F80028E5D1002070BD2DE9F04FE5
:102F800083B04FF000091E4690460D4683468DF8EB
:102F90000790FDF7C5FF301A00EB0807FDF7C0FFEB
:102FA00040F20401C2F20001096823225143090DD5
:102FB000DBF800A079430291DAF8081029424DD0DD
:102FC000064608F1010404E0DBF8000080682842AE
:102FD00017D0B5F5C06F05D19AF80C008DF8070031
:102FE0009DF80700002CEFD0FDF79AFF801BB84238
:102FF0000AD202980299002808BF0746481E02908C
:10300000E2E74FF0000929E0DBE900014268B1F591
:10301000827F22F0E00242600BD1DBF80810B1F5AC
:10302000004F02D0B1F5806F03D1016821F040015B
:103030000160DBF82810B1F5005F07D1016821F4C9
:1030400000510160016841F40051016001208BF8DA
:103050005D0000208BF85C004FF00309484603B088
:10306000BDE8F08FF0B581B015460E460446FDF779
:1030700057FF281A8719FDF753FF40F20401C2F2E7
:1030800000010968C1F3CB31794300912168896857
:10309000090602D4002001B0F0BD0546013603E068
:1030A000206880680006F5D5002EF9D0FDF738FFBE
:1030B000401BB84207D200980099002808BF074675
:1030C000481E0090ECE7D4E900014268B1F5827F28
:1030D00022F0E00242600AD1A168B1F5004F02D0AF
:1030E000B1F5806F03D1016821F040010160A16A50
:1030F000B1F5005F07D1016821F40051016001685A
:1031000041F400510160012084F85D00002084F842
:103110005C00032001B0F0BD70470000FDF7DEBF8A
:1031200010B542F20000C4F202000168022262F30C
:1031300002010160016801F007010229FAD141F2A0
:103140000004C4F20204206840F48030206000BF14
:1031500020688003FCD5206840F00100206000BF9B
:1031600020688007FCD52068102161F3C70020602B
:10317000606820F4741000F5E8106060E06A20F0E8
:103180000F00E062206840F08070206020688001BD
:10319000FCD56068042120F0F0006060606861F395
:1031A0000A2060606068022120F4605060606068FE
:1031B00061F30100606000BF606800F00C00082847
:1031C000FAD14AF20020C0F24A40FFF7E5F90020A8
:1031D000FDF7A6FF18B1EFF3108072B6FEE7206B83
:1031E00020F003002063206B20F010002063206B90
:1031F00020F48060206310BD4EF68850CEF20000AF
:10320000016841F47001016070470000416ACA071B
:103210000CD18A0715D44A071ED40A0727D4CA0638
:1032200030D48A0639D44A0642D457E00268D0F82E
:1032300028C0536823F4003343EA0C0353608A0721
:10324000E9D50268D0F82CC0536823F4803343EAF0
:103250000C0353604A07E0D50268D0F830C05368C9
:1032600023F4802343EA0C0353600A07D7D502688E
:10327000D0F834C0536823F4004343EA0C0353608E
:10328000CA06CED50268D0F838C0936823F48053BC
:1032900043EA0C0393608A06C5D50268D0F83CC0A7
:1032A000936823F4005343EA0C0393604A0615D550
:1032B000D0F800C0036CDCF80420B3F5801F22F4C2
:1032C000801242EA0302CCF8042007D1DCF8042083
:1032D000436C22F4C0021A43CCF80420090658BFFC
:1032E00070470168806C4A6822F4002210434860ED
:1032F00070470000406A0021A0F85A10A0F8521050
:10330000FEF74ABDB0B504460268806804F10C05BA
:103310002ACD184340EA0503D4F81CC0156846F6C8
:10332000F310CEF6FF702840184340EA0C001060FE
:10333000506820F4405008435060A069216A9368A7
:10334000084323F430610843906044F20040C4F223
:10335000000082424FF0000117D044F60000C4F292
:103360000000824211D043F60000C4F20100824204
:103370000AD141F23000C4F20200006830A100F02E
:10338000030051F8201000E0102141F20020BCF5AC
:10339000004FC0F27A000DD1082946D80025DFE899
:1033A00001F005442144174444441F00FDF748FF41
:1033B000C8B935E008293DD80025DFE801F0053B14
:1033C000243B0D3B3B3B2200FDF73AFFE0B927E0F1
:1033D000FDF74AFF38B923E0FDF746FFA0B91FE02B
:1033E0004FF40040E0B161684A0802EB4000B0FBD6
:1033F000F1F04FF6F071014011D0C0F342000843E4
:103400000AE04FF4004058B1616800EB5100B0FB96
:10341000F1F080B2102802D32168C86000E00125D5
:10342000002128466166A166B0BD00200125002864
:10343000D9D1F5E7002001250028E5D1F0E700BF4C
:10344000000000000400000008000000020000006E
:103450002DE9F04381B004460068C0690840401A75
:10346000B0FA80F04009904262D1DDF82080154624
:103470000E46994608F1010709E000BF2068C069BF
:103480003040801BB0FA80F04009A84250D1002F94
:10349000F4D0FDF745FDB8F1000F29D0A0EB0900ED
:1034A000404525D820680168490744BFC1695FEAE3
:1034B0000151E3D54FF40061016200BF206850E87C
:1034C000000F216820F4D07041E80002002AF5D1F5
:1034D000206850E8020F216820F0010041E8020254
:1034E000002AF5D12020A06780207C2116E000BFB3
:1034F000206850E8000F216820F4D07041E80002F5
:10350000002AF5D1206850E8020F216820F0010060
:1035100041E80202002AF5D17C2078212022625065
:103520002250002084F87400032001B0BDE8F0832D
:10353000002001B0BDE8F08340F29420C2F2000008
:10354000FEF72CBCFEE7000040F21840C4F6000075
:103550004FF48051016044F23801C4F2010132227B
:1035600014200A60FFF73ABA70B516460C4659B1F6
:10357000031F00200021224653F8045F401941EB4D
:10358000E571013AF8D101E0002000212246002334
:10359000FCF747FE306070BD86B0FDF7ADFDFFF76C
:1035A000BFFDFFF769FAFFF74DFAFFF72BFAFFF7B8
:1035B00033FBFFF75BFCFFF7F7FAFFF777FCFFF74A
:1035C000EDFBFFF755FB40F2A800C2F20000FDF74B
:1035D00055F9FFF7B9FF1420FFF700FA40F214067F
:1035E00043F6DC78C2F2000640F21029B1EE008A00
:1035F000C0F6000803AD4FF0730B771C4FF0650A5F
:10360000C2F200090EE000BF301980F801A0A01C32
:10361000C2B2484631464FF47A73FEF723FE1420B7
:10362000FDF78CFBFFF762FC40F22400C2F20000C1
:10363000006840F20001C2F20001A0F2AB2091ED5F
:10364000000A01EE100AB8EEC11A20EE010A40F29B
:10365000100030EE080AC2F2000080ED000A10EE01
:10366000100AFCF7C2FF41EC100B28460A21424623
:1036700004238DED000B00F00FF8284686F800B00B
:10368000FCF724FE04460128BEDB384629462246C4
:10369000FCF7F8FDB8E700000FB47CB50C0009ADED
:1036A00001D0611E00E00021CDE90001064B6A4611
:1036B0002946089800F0DCF8002C02D0009A00217E
:1036C00011707CBC5DF814FB9F3F000802E008C845
:1036D000121F08C1002AFAD170477047002001E08C
:1036E00001C1121F002AFBD1704700002DE9FF5FC6
:1036F00082B00021DDE90430020DDDF840B0034363
:1037000018D044F61050A2F2FF324243151411981B
:1037100001281FD0A5EB0B00401C5FEA000A4FF008
:1037200000064E4FDFF83891B046504615D5CAF125
:10373000000413E0119801244AA3012801D16FEA83
:103740000B010298119AC0E90031C0E9024206B0AB
:10375000BDE8F09FCBF10000DFE704460021404ABE
:10376000491842EB0450CDE9001012E0E00707D001
:1037700032463B4640464946FCF756FE804689465F
:1037800032463B4610461946FCF74EFE06460F46AB
:103790006410002CEAD1DDE90401DDE90023BAF16F
:1037A000000F06DAFCF740FE42464B46FCF73CFEB3
:1037B00005E0FCF7ABFE42464B46FCF7A7FE04468D
:1037C0000E460022284BFCF7DFFF03D84FF0FF30F6
:1037D000014607E00022254B20463146FCF77DFDDF
:1037E000FCF7BAFF102409E0002C0ADB0A220023B0
:1037F000FCF7E6FC039B30321A55641E50EA0102C6
:10380000F2D1641C039AC4F111031444119A012AE1
:1038100003D0012208430DD10AE0084304D0002060
:103820004FF0110B119072E7A3EB0B056D1E0DE02D
:103830005B4504DD4FF0000205F1010504E003DA09
:103840004FF00002A5F10105002AECD00298119971
:10385000C0E90231C0E9004579E7000000001440EA
:103860000000F03F300000000000F0430000E03FA7
:103870002DE9FF4F95B09B468946064600250FE28D
:10388000252877D100242746F84A0121059400E035
:10389000044316F8013F203B01FA03F01042F7D130
:1038A00030782A2811D06FF02F033078A0F1300241
:1038B000092A16D8059A44F0020402EB820203EBAF
:1038C00042021044761C0590EFE759F8042B05924C
:1038D000002A03DA504244F40054059044F00204F4
:1038E000761C30782E2816D116F8010F44F0040407
:1038F0002A280DD06FF02F023078A0F13003092B69
:1039000009D807EB870302EB4303C718761CF3E7DC
:1039100059F8047B761C30786C280FD006DC4C28D4
:1039200017D068280DD06A2814D104E0742810D06C
:103930007A280FD10DE044F400140AE044F4801416
:1039400001E044F440147278824202D104F58014FC
:10395000761C761C307866280BD013DC582877D07C
:1039600009DC002875D04528F6D04628F4D0472831
:103970001AD19DE118E0632835D0642879D06528F4
:1039800012D195E1702873D008DC6728F1D069283E
:103990006FD06E280DD06F2806D1B5E073282CD0DB
:1039A000752875D0782874D05A46179990476D1CA1
:1039B00075E1C4F30250022809D003280DD0D9F8CC
:1039C000001004280DD00D6009F1040967E1D9F851
:1039D0000010EA17C1E90052F6E7D9F800100D808F
:1039E000F2E70D70F0E719F8041B8DF800100020C5
:1039F0008DF80100EA46012003E059F804AB4FF0CE
:103A0000FF3061074FF0000102D40DE008F1010121
:103A10008846B9420FDA8045F8DB1AF80810002909
:103A2000F4D108E008F1010188468142FADB1AF876
:103A300008100029F6D105985B46A0EB080721463F
:103A40003846179A00F094FA284400EB080507E07E
:103A50004DE029E10DE01AF8010B5A4617999047FD
:103A6000B8F10108F7D25B4621463846179A13E1B0
:103A700042E00A220092C4F302524FF0000A022AE6
:103A800008D059F804CB032A4FEAEC710AD00DE0B4
:103A900029E02AE009F1070121F00702F2E802C15A
:103AA000914609E00FFA8CFC4FEAEC71042A03D12D
:103AB0004FFA8CFC4FEAEC71002907DA0A46002124
:103AC000DCF1000C61EB02012D2202E0220504D59D
:103AD0002B228DF80420012203E0E20701D02022EE
:103AE000F7E7904659E00A2102E010220DE010218C
:103AF0004FF0000A00910BE010224FF0000A44F052
:103B000004040827009203E008224FF0000A009204
:103B1000C4F30252022A05D059F804CB0021032A2B
:103B200008D009E009F1070121F00702F2E802C11B
:103B3000914605E01FFA8CFC042A01D10CF0FF0C21
:103B40004FF00008220728D5702806D0009B83F08C
:103B5000100353EA0A0305D00EE040228DF804203A
:103B6000012208E05CEA010206D030228DF8042030
:103B70008DF8050002229046009B83F0080353EA6B
:103B80000A030AD15CEA010201D1620705D530229D
:103B90008DF804204FF001087F1E582804D034A06F
:103BA00003900EA802900DE036A0F9E75346604658
:103BB000009AFCF705FB84460398825C0298401E3D
:103BC000029002705CEA0100F0D1029806A9081A7E
:103BD00000F1200A600702D524F4803400E00127B8
:103BE000574502DDA7EB0A0000E0002000EB0A01C8
:103BF000009005984144401A0590E00306D45B46C6
:103C00002146179A059800F0B3F90544002706E00D
:103C100001A85A46C05D179990476D1C7F1C474507
:103C2000F6DBE0030CD55B462146179A059800F0B9
:103C30009FF9054404E030205A46179990476D1CBF
:103C40000099481E00900029F5DC08E002980299CE
:103C50005A460078491C0291179990476D1CBAF199
:103C60000001AAF1010AF1DC65E100000928010068
:103C700030313233343536373839616263646566E2
:103C800000000000303132333435363738394142A4
:103C9000434445460000000000F058F90544761CF6
:103CA000307800287FF4ECAD19B02846BDE8F08FDD
:103CB000620700D4062709F1070222F0070CFCE88E
:103CC0000223E14603F000485FEA080C02D00FF23D
:103CD000702C0DE05FEA045C02D50FF2682C07E05F
:103CE0005FEAC47C02D00FF2602C01E0AFF2700CEE
:103CF0004FF0FF3823F00043CDF850C065280CD0BA
:103D000006DC452809D046281DD047283DD13DE096
:103D1000662818D067287ED138E00021112F01DBFA
:103D2000112000E0781CCDE9000106A90EA8FFF7DC
:103D3000DDFCDDE90F010E9A03910021009207F1ED
:103D4000010A04914DE04FF000400097CDE90110C9
:103D500006A90EA8FFF7CAFCDDE90F0203920E9B2D
:103D600011990022DDF80CA00093049211B9791C7E
:103D700000EB010AB7EB0A0004D4C0F1FF3007F1F1
:103D8000010A0490AAEB0700019044E0012F00DA39
:103D900001270021112F01DD112000E03846CDE977
:103DA000000106A90EA8FFF7A1FCDDE90F010E9A9C
:103DB0000391002104910092BA4621070CD4039983
:103DC000514500DA8A46BAF1010F05DD009AAAF1E1
:103DD0000101515C302908D0B84202DA10F1040F19
:103DE00006DA0121CDE9011015E0AAF10101E9E7A8
:103DF000002805DC049901440491AAEB000102E0CB
:103E0000411C514500DD8A460499401A401C01902E
:103E10004FF000400290200704D40198504501DB88
:103E2000CDF8048000208DF84F0002980DF14F0767
:103E3000B0F1004F25D02B200E9002984FF00208D1
:103E400000280CDA404202902D200E9007E00A2153
:103E50000298FCF7DDFB3031029007F8011DB8F144
:103E60000001A8F10108F2DC02980028EFD1791EC8
:103E70000E980870307800F0200040F0450007F8F8
:103E8000020D12A8C01B00F107081498007800B1B9
:103E9000012000EB0A01019801EBE0710598414413
:103EA000401A401E0590E00306D45B462146179A4F
:103EB000059800F05DF805441498007818B15A464A
:103EC000179990476D1CE00324D55B462146179A4D
:103ED000059800F04DF805441CE00498002807DB25
:103EE000DDE90301884203DD0098405C179901E099
:103EF000179930205A469047049805F10105401C57
:103F000004900198401E019004D12E205A46179922
:103F100090476D1CBAF10001AAF1010ADDDC05E051
:103F200017F8010B5A46179990476D1CB8F100011C
:103F3000A8F10108F4DC5B462146179A0598ABE628
:103F40002D0000002B000000200000002DE9F041B2
:103F5000044600251E461746880404D405E0394669
:103F60002020B0476D1C641EF9D52846BDE8F081BD
:103F70002DE9F041044600251E469046C80301D5B0
:103F8000302700E02027880404D505E04146384664
:103F9000B0476D1C641EF9D52846BDE8F0814A681B
:103FA000002A06D00A68531C0B6010704868401E37
:103FB000486070470000000001020304020304058A
:103FC000060708090A0B0C0D0E0F1010010203045E
:103FD00005060708090A0B0C0D0E0F10252E2A6680
:103FE0000000000008400008000000201000000051
:103FF000CC36000818400008100000201007000010
:10400000DC360008000000000A46863900127A00FB
:08401000010000001000000097
:040000050800018965
:00000001FF
